{"transaction/smart_contract/LandTransaction.sol":{"LandTransaction":{"abi":[{"inputs":[{"internalType":"address","name":"_oracleAddress","type":"address"}],"stateMutability":"nonpayable","type":"constructor"},{"anonymous":false,"inputs":[{"indexed":true,"internalType":"uint256","name":"agreementId","type":"uint256"}],"name":"AgreementSigned","type":"event"},{"anonymous":false,"inputs":[{"indexed":true,"internalType":"uint256","name":"agreementId","type":"uint256"},{"indexed":false,"internalType":"uint256","name":"installmentNumber","type":"uint256"},{"indexed":false,"internalType":"uint256","name":"amount","type":"uint256"}],"name":"InstallmentPaid","type":"event"},{"anonymous":false,"inputs":[{"indexed":true,"internalType":"uint256","name":"agreementId","type":"uint256"}],"name":"PaymentCancelled","type":"event"},{"anonymous":false,"inputs":[{"indexed":true,"internalType":"uint256","name":"agreementId","type":"uint256"},{"indexed":false,"internalType":"uint256","name":"amount","type":"uint256"}],"name":"PaymentRecorded","type":"event"},{"anonymous":false,"inputs":[{"indexed":true,"internalType":"uint256","name":"agreementId","type":"uint256"}],"name":"PaymentVerified","type":"event"},{"anonymous":false,"inputs":[{"indexed":true,"internalType":"uint256","name":"agreementId","type":"uint256"},{"indexed":true,"internalType":"uint256","name":"parcelId","type":"uint256"}],"name":"TransactionAdded","type":"event"},{"inputs":[{"internalType":"uint256","name":"_agreementId","type":"uint256"},{"internalType":"uint256","name":"_totalAmount","type":"uint256"},{"internalType":"uint256","name":"_downPayment","type":"uint256"},{"internalType":"uint256","name":"_penaltyRate","type":"uint256"}],"name":"addTransactionPart1","outputs":[],"stateMutability":"nonpayable","type":"function"},{"inputs":[{"internalType":"uint256","name":"_agreementId","type":"uint256"},{"internalType":"bytes32","name":"_termsHash","type":"bytes32"},{"internalType":"uint256","name":"_expirationDate","type":"uint256"},{"internalType":"uint256","name":"_totalInstallments","type":"uint256"},{"internalType":"uint256","name":"_cancellationFee","type":"uint256"},{"internalType":"uint256","name":"_refundFee","type":"uint256"}],"name":"addTransactionPart2","outputs":[],"stateMutability":"nonpayable","type":"function"},{"inputs":[{"internalType":"uint256","name":"_agreementId","type":"uint256"}],"name":"cancelTransaction","outputs":[],"stateMutability":"nonpayable","type":"function"},{"inputs":[{"internalType":"uint256","name":"_agreementId","type":"uint256"}],"name":"getPenalty","outputs":[{"internalType":"uint256","name":"","type":"uint256"}],"stateMutability":"view","type":"function"},{"inputs":[{"internalType":"uint256","name":"_agreementId","type":"uint256"}],"name":"getRemainingInstallments","outputs":[{"internalType":"uint256","name":"","type":"uint256"}],"stateMutability":"view","type":"function"},{"inputs":[{"internalType":"uint256","name":"_agreementId","type":"uint256"}],"name":"getTransactionDetails","outputs":[{"internalType":"uint256[11]","name":"numericDetails","type":"uint256[11]"},{"internalType":"bool[4]","name":"booleanDetails","type":"bool[4]"},{"internalType":"bytes32","name":"termsHash","type":"bytes32"}],"stateMutability":"view","type":"function"},{"inputs":[{"internalType":"uint256","name":"_agreementId","type":"uint256"}],"name":"isContractExpired","outputs":[{"internalType":"bool","name":"","type":"bool"}],"stateMutability":"view","type":"function"},{"inputs":[{"internalType":"uint256","name":"_agreementId","type":"uint256"}],"name":"isPaymentVerified","outputs":[{"internalType":"bool","name":"","type":"bool"}],"stateMutability":"view","type":"function"},{"inputs":[],"name":"oracleAddress","outputs":[{"internalType":"address","name":"","type":"address"}],"stateMutability":"view","type":"function"},{"inputs":[],"name":"owner","outputs":[{"internalType":"address","name":"","type":"address"}],"stateMutability":"view","type":"function"},{"inputs":[{"internalType":"uint256","name":"_agreementId","type":"uint256"},{"internalType":"uint256","name":"_amount","type":"uint256"}],"name":"payInstallment","outputs":[],"stateMutability":"nonpayable","type":"function"},{"inputs":[{"internalType":"uint256","name":"_agreementId","type":"uint256"},{"internalType":"uint256","name":"_amount","type":"uint256"}],"name":"recordPayment","outputs":[],"stateMutability":"nonpayable","type":"function"},{"inputs":[{"internalType":"uint256","name":"_agreementId","type":"uint256"}],"name":"signAgreement","outputs":[],"stateMutability":"nonpayable","type":"function"},{"inputs":[{"internalType":"uint256","name":"","type":"uint256"}],"name":"transactions","outputs":[{"internalType":"uint256","name":"totalAmount","type":"uint256"},{"internalType":"uint256","name":"downPayment","type":"uint256"},{"internalType":"uint256","name":"penaltyRate","type":"uint256"},{"internalType":"uint256","name":"expirationDate","type":"uint256"},{"internalType":"uint256","name":"totalInstallments","type":"uint256"},{"internalType":"uint256","name":"installmentsPaid","type":"uint256"},{"internalType":"uint256","name":"lastInstallmentDate","type":"uint256"},{"internalType":"uint256","name":"installmentAmount","type":"uint256"},{"internalType":"uint256","name":"currentAmountPaid","type":"uint256"},{"internalType":"uint256","name":"cancellationFee","type":"uint256"},{"internalType":"uint256","name":"refundFee","type":"uint256"},{"internalType":"bytes32","name":"termsHash","type":"bytes32"},{"internalType":"bool","name":"isVerified","type":"bool"},{"internalType":"bool","name":"isPaymentRecorded","type":"bool"},{"internalType":"bool","name":"isAgreementSigned","type":"bool"},{"internalType":"bool","name":"isCanceled","type":"bool"}],"stateMutability":"view","type":"function"},{"inputs":[{"internalType":"uint256","name":"_agreementId","type":"uint256"},{"internalType":"uint256","name":"_amount","type":"uint256"},{"internalType":"bytes32","name":"_termsHash","type":"bytes32"}],"name":"verifyPayment","outputs":[],"stateMutability":"nonpayable","type":"function"}],"evm":{"bytecode":{"linkReferences":{},"object":"60803461007a57601f610de638819003918201601f19168301916001600160401b0383118484101761007f5780849260209460405283398101031261007a57516001600160a01b0381169081900361007a5760018060a01b0319338160005416176000556001541617600155604051610d5090816100968239f35b600080fd5b634e487b7160e01b600052604160045260246000fdfe6040608081526004908136101561001557600080fd5b600091823560e01c806303742de014610ad25780630b879bc2146109b35780630fa683d3146107ee57806311cb262f146107c257806323bbd4a3146107935780633380c0d81461065557806346402a79146105515780636a1c66411461045a57806389b8ba0e1461031a5780638da5cb5b146102f257806396e596821461029a5780639ace38c2146101b6578063a89ae4ba14610189578063c78d6ca9146101505763ecd87c45146100c657600080fd5b3461014c57608036600319011261014c578035906100ee60018060a01b038554163314610b95565b818452600260205282842054610120575082526002602052812060243581556044356001820155600260643591015580f35b606490602084519162461bcd60e51b8352820152600660248201526545786973747360d01b6044820152fd5b8280fd5b503461014c57602036600319011261014c57806005836020956101829435815260028752209182015491015490610d0d565b9051908152f35b5050346101b257816003193601126101b25760015490516001600160a01b039091168152602090f35b5080fd5b508234610297576020366003190112610297578290823581526002602052208054926001820154926002830154906003840154908401546005850154600686015490600787015492600888015494600989015496600a8a015498600b8b01549a600c01549b8151809e8152602001528c015260608b015260808a015260a089015260c088015260e087015261010086015261012085015261014084015261016083015260ff811615156101808301528060081c60ff1615156101a08301528060101c60ff1615156101c083015260181c60ff1615156101e082015261020090f35b80fd5b508234610297576020366003190112610297578135815260026020528281209160028354930154928381029381850414901517156102df576020836064865191048152f35b634e487b7160e01b825260119052602490fd5b5050346101b257816003193601126101b257905490516001600160a01b039091168152602090f35b503461014c57606036600319011261014c5780359161034460018060a01b03600154163314610bce565b828452600260205280842061035b81541515610c9f565b604435600b8201540361042657600c81019283549260ff8460101c16156103f65760ff84166103c85750509061039a6001809301546024351015610c43565b60ff19161790557ffba5e95c7019bce78b9f892c6ced099cddb93ab803a0475345ced0659277834f8280a280f35b906020606492519162461bcd60e51b8352820152600860248201526715995c9a599a595960c21b6044820152fd5b906020606492519162461bcd60e51b8352820152600a602482015269139bdd081cda59db995960b21b6044820152fd5b815162461bcd60e51b8152602081850152600e60248201526d0a8cae4dae640dad2e6dac2e8c6d60931b6044820152606490fd5b509190346101b25760c03660031901126101b25782359060643561048860018060a01b038554163314610b95565b828452600260205281842091825490811561051b57506104d290602435600b85015560443560038501558287850155608435600985015560a435600a850155600184015490610d0d565b8115610508579060079104910155807f3e8e23c97d0d7bdf58a8c0b86dd5f225d5bf51de564f91e7b100bfb6c33599408380a380f35b634e487b7160e01b855260128652602485fd5b5162461bcd60e51b8152602081880152601160248201527014185c9d080c481b9bdd0818d85b1b1959607a1b6044820152606490fd5b509190346101b25761056236610b7a565b61057960018060a09594951b038554163314610b95565b8284526002602052818420908154610592811515610c9f565b600c8301908154906105a660ff8316610c08565b6105b66003860154421115610cd7565b6105c66007860154851015610c43565b600885016105d5858254610c7c565b809155600586019586549660018801809811610642577fd6985739ec9552d19c3572fc03d8cc0f929e20de244eaa8d01c1786d61fd177a999a9b508790556006429101551015610630575b505082519182526020820152a280f35b61ff0019166101001790553880610620565b634e487b7160e01b8b5260118c5260248bfd5b503461014c57602036600319011261014c5780359161067e60018060a01b038554163314610b95565b828452600260205280842091600c83019260ff845460181c16610764576106a781541515610c9f565b6106b76003820154421115610cd7565b6009600882015491015480821160001461075b576106d491610d0d565b905b811561072c575084808080933382f1156107235750805463ff000000191663010000001790557fb85e553db1cc947378f2f2d6071d3e64a20a8d3896fee3d15a5087372164e97c8280a280f35b513d84823e3d90fd5b606490602084519162461bcd60e51b83528201526009602482015268139bc81c99599d5b9960ba1b6044820152fd5b505084906106d6565b506020606492519162461bcd60e51b8352820152600960248201526810d85b98d95b1b195960ba1b6044820152fd5b503461014c57602036600319011261014c57600c8260209460ff93358152600286522001541690519015158152f35b503461014c57602036600319011261014c57816020936003923581526002855220015442119051908152f35b509190346101b2576020928360031936011261014c57815193610160938486019567ffffffffffffffff96818110888211176109a05785528590369037835160808101818110888211176109a05785526080903690378235815260028252838120958451958087018781108382111761098d5786528754875260019760018101548589015260028101548789015260038101546060890152858101546080890152600581015460a0890152600681015460c0890152600781015460e089015260088101546101008901526009810154610120890152600a81015461014089015286519260808401908482109082111761097a57879493945260ff600c82015481811615158652818160081c16151587870152818160101c1615158987015260181c1615156060850152600b8091015496519788908a8786935b8585106109635750505050505086019190915b84831061094e5761020087876101e0820152f35b8151151581529187019190830190830161093a565b835181529190930192918201918c91899101610927565b634e487b7160e01b855260418752602485fd5b634e487b7160e01b845260418652602484fd5b634e487b7160e01b835260418552602483fd5b50903461014c576109c336610b7a565b9190926109db60018060a01b03600154163314610bce565b8385526002602052818520600c8101918254916109fa60ff8416610c08565b60ff8360081c16610aa457610a156007820154871015610c43565b6008810191610a25878454610c7c565b8093556005820180549160018301809311610a915750917f35aa84e7964cb24e58d32f42bcfd54d92adbf93087dd63ea09eb7492f7a205cf97959391602097959355426006820155541115610a7f575b505051908152a280f35b61ff0019166101001790553880610a75565b634e487b7160e01b8b526011905260248afd5b845162461bcd60e51b81526020818401526008602482015267149958dbdc99195960c21b6044820152606490fd5b503461014c57602036600319011261014c57803591610afb60018060a01b038554163314610b95565b8284526002602052600c818520019182549160ff8360101c16610b4e57505062ff00001916620100001790557fe128256da5d46f76aecc0d0cc60c2dbe58656f40c7cbd375a9115d2b652020128280a280f35b906020606492519162461bcd60e51b8352820152600660248201526514da59db995960d21b6044820152fd5b6040906003190112610b90576004359060243590565b600080fd5b15610b9c57565b60405162461bcd60e51b815260206004820152600a60248201526927b7363c9037bbb732b960b11b6044820152606490fd5b15610bd557565b60405162461bcd60e51b815260206004820152600b60248201526a4f6e6c79206f7261636c6560a81b6044820152606490fd5b15610c0f57565b60405162461bcd60e51b815260206004820152600c60248201526b139bdd081d995c9a599a595960a21b6044820152606490fd5b15610c4a57565b60405162461bcd60e51b815260206004820152600a602482015269131bddc8185b5bdd5b9d60b21b6044820152606490fd5b91908201809211610c8957565b634e487b7160e01b600052601160045260246000fd5b15610ca657565b60405162461bcd60e51b8152602060048201526009602482015268139bdd08195e1a5cdd60ba1b6044820152606490fd5b15610cde57565b60405162461bcd60e51b8152602060048201526007602482015266115e1c1a5c995960ca1b6044820152606490fd5b91908203918211610c895756fea26469706673582212207f6682c1ac0d806ebf7f8ff981f09ed6033c152cf4d3acc3e9a0400fe0d596d564736f6c63430008180033","opcodes":"PUSH1 0x80 CALLVALUE PUSH2 0x7A JUMPI PUSH1 0x1F PUSH2 0xDE6 CODESIZE DUP2 SWAP1 SUB SWAP2 DUP3 ADD PUSH1 0x1F NOT AND DUP4 ADD SWAP2 PUSH1 0x1 PUSH1 0x1 PUSH1 0x40 SHL SUB DUP4 GT DUP5 DUP5 LT OR PUSH2 0x7F JUMPI DUP1 DUP5 SWAP3 PUSH1 0x20 SWAP5 PUSH1 0x40 MSTORE DUP4 CODECOPY DUP2 ADD SUB SLT PUSH2 0x7A JUMPI MLOAD PUSH1 0x1 PUSH1 0x1 PUSH1 0xA0 SHL SUB DUP2 AND SWAP1 DUP2 SWAP1 SUB PUSH2 0x7A JUMPI PUSH1 0x1 DUP1 PUSH1 0xA0 SHL SUB NOT CALLER DUP2 PUSH1 0x0 SLOAD AND OR PUSH1 0x0 SSTORE PUSH1 0x1 SLOAD AND OR PUSH1 0x1 SSTORE PUSH1 0x40 MLOAD PUSH2 0xD50 SWAP1 DUP2 PUSH2 0x96 DUP3 CODECOPY RETURN JUMPDEST PUSH1 0x0 DUP1 REVERT JUMPDEST PUSH4 0x4E487B71 PUSH1 0xE0 SHL PUSH1 0x0 MSTORE PUSH1 0x41 PUSH1 0x4 MSTORE PUSH1 0x24 PUSH1 0x0 REVERT INVALID PUSH1 0x40 PUSH1 0x80 DUP2 MSTORE PUSH1 0x4 SWAP1 DUP2 CALLDATASIZE LT ISZERO PUSH2 0x15 JUMPI PUSH1 0x0 DUP1 REVERT JUMPDEST PUSH1 0x0 SWAP2 DUP3 CALLDATALOAD PUSH1 0xE0 SHR DUP1 PUSH4 0x3742DE0 EQ PUSH2 0xAD2 JUMPI DUP1 PUSH4 0xB879BC2 EQ PUSH2 0x9B3 JUMPI DUP1 PUSH4 0xFA683D3 EQ PUSH2 0x7EE JUMPI DUP1 PUSH4 0x11CB262F EQ PUSH2 0x7C2 JUMPI DUP1 PUSH4 0x23BBD4A3 EQ PUSH2 0x793 JUMPI DUP1 PUSH4 0x3380C0D8 EQ PUSH2 0x655 JUMPI DUP1 PUSH4 0x46402A79 EQ PUSH2 0x551 JUMPI DUP1 PUSH4 0x6A1C6641 EQ PUSH2 0x45A JUMPI DUP1 PUSH4 0x89B8BA0E EQ PUSH2 0x31A JUMPI DUP1 PUSH4 0x8DA5CB5B EQ PUSH2 0x2F2 JUMPI DUP1 PUSH4 0x96E59682 EQ PUSH2 0x29A JUMPI DUP1 PUSH4 0x9ACE38C2 EQ PUSH2 0x1B6 JUMPI DUP1 PUSH4 0xA89AE4BA EQ PUSH2 0x189 JUMPI DUP1 PUSH4 0xC78D6CA9 EQ PUSH2 0x150 JUMPI PUSH4 0xECD87C45 EQ PUSH2 0xC6 JUMPI PUSH1 0x0 DUP1 REVERT JUMPDEST CALLVALUE PUSH2 0x14C JUMPI PUSH1 0x80 CALLDATASIZE PUSH1 0x3 NOT ADD SLT PUSH2 0x14C JUMPI DUP1 CALLDATALOAD SWAP1 PUSH2 0xEE PUSH1 0x1 DUP1 PUSH1 0xA0 SHL SUB DUP6 SLOAD AND CALLER EQ PUSH2 0xB95 JUMP JUMPDEST DUP2 DUP5 MSTORE PUSH1 0x2 PUSH1 0x20 MSTORE DUP3 DUP5 KECCAK256 SLOAD PUSH2 0x120 JUMPI POP DUP3 MSTORE PUSH1 0x2 PUSH1 0x20 MSTORE DUP2 KECCAK256 PUSH1 0x24 CALLDATALOAD DUP2 SSTORE PUSH1 0x44 CALLDATALOAD PUSH1 0x1 DUP3 ADD SSTORE PUSH1 0x2 PUSH1 0x64 CALLDATALOAD SWAP2 ADD SSTORE DUP1 RETURN JUMPDEST PUSH1 0x64 SWAP1 PUSH1 0x20 DUP5 MLOAD SWAP2 PUSH3 0x461BCD PUSH1 0xE5 SHL DUP4 MSTORE DUP3 ADD MSTORE PUSH1 0x6 PUSH1 0x24 DUP3 ADD MSTORE PUSH6 0x457869737473 PUSH1 0xD0 SHL PUSH1 0x44 DUP3 ADD MSTORE REVERT JUMPDEST DUP3 DUP1 REVERT JUMPDEST POP CALLVALUE PUSH2 0x14C JUMPI PUSH1 0x20 CALLDATASIZE PUSH1 0x3 NOT ADD SLT PUSH2 0x14C JUMPI DUP1 PUSH1 0x5 DUP4 PUSH1 0x20 SWAP6 PUSH2 0x182 SWAP5 CALLDATALOAD DUP2 MSTORE PUSH1 0x2 DUP8 MSTORE KECCAK256 SWAP2 DUP3 ADD SLOAD SWAP2 ADD SLOAD SWAP1 PUSH2 0xD0D JUMP JUMPDEST SWAP1 MLOAD SWAP1 DUP2 MSTORE RETURN JUMPDEST POP POP CALLVALUE PUSH2 0x1B2 JUMPI DUP2 PUSH1 0x3 NOT CALLDATASIZE ADD SLT PUSH2 0x1B2 JUMPI PUSH1 0x1 SLOAD SWAP1 MLOAD PUSH1 0x1 PUSH1 0x1 PUSH1 0xA0 SHL SUB SWAP1 SWAP2 AND DUP2 MSTORE PUSH1 0x20 SWAP1 RETURN JUMPDEST POP DUP1 REVERT JUMPDEST POP DUP3 CALLVALUE PUSH2 0x297 JUMPI PUSH1 0x20 CALLDATASIZE PUSH1 0x3 NOT ADD SLT PUSH2 0x297 JUMPI DUP3 SWAP1 DUP3 CALLDATALOAD DUP2 MSTORE PUSH1 0x2 PUSH1 0x20 MSTORE KECCAK256 DUP1 SLOAD SWAP3 PUSH1 0x1 DUP3 ADD SLOAD SWAP3 PUSH1 0x2 DUP4 ADD SLOAD SWAP1 PUSH1 0x3 DUP5 ADD SLOAD SWAP1 DUP5 ADD SLOAD PUSH1 0x5 DUP6 ADD SLOAD PUSH1 0x6 DUP7 ADD SLOAD SWAP1 PUSH1 0x7 DUP8 ADD SLOAD SWAP3 PUSH1 0x8 DUP9 ADD SLOAD SWAP5 PUSH1 0x9 DUP10 ADD SLOAD SWAP7 PUSH1 0xA DUP11 ADD SLOAD SWAP9 PUSH1 0xB DUP12 ADD SLOAD SWAP11 PUSH1 0xC ADD SLOAD SWAP12 DUP2 MLOAD DUP1 SWAP15 DUP2 MSTORE PUSH1 0x20 ADD MSTORE DUP13 ADD MSTORE PUSH1 0x60 DUP12 ADD MSTORE PUSH1 0x80 DUP11 ADD MSTORE PUSH1 0xA0 DUP10 ADD MSTORE PUSH1 0xC0 DUP9 ADD MSTORE PUSH1 0xE0 DUP8 ADD MSTORE PUSH2 0x100 DUP7 ADD MSTORE PUSH2 0x120 DUP6 ADD MSTORE PUSH2 0x140 DUP5 ADD MSTORE PUSH2 0x160 DUP4 ADD MSTORE PUSH1 0xFF DUP2 AND ISZERO ISZERO PUSH2 0x180 DUP4 ADD MSTORE DUP1 PUSH1 0x8 SHR PUSH1 0xFF AND ISZERO ISZERO PUSH2 0x1A0 DUP4 ADD MSTORE DUP1 PUSH1 0x10 SHR PUSH1 0xFF AND ISZERO ISZERO PUSH2 0x1C0 DUP4 ADD MSTORE PUSH1 0x18 SHR PUSH1 0xFF AND ISZERO ISZERO PUSH2 0x1E0 DUP3 ADD MSTORE PUSH2 0x200 SWAP1 RETURN JUMPDEST DUP1 REVERT JUMPDEST POP DUP3 CALLVALUE PUSH2 0x297 JUMPI PUSH1 0x20 CALLDATASIZE PUSH1 0x3 NOT ADD SLT PUSH2 0x297 JUMPI DUP2 CALLDATALOAD DUP2 MSTORE PUSH1 0x2 PUSH1 0x20 MSTORE DUP3 DUP2 KECCAK256 SWAP2 PUSH1 0x2 DUP4 SLOAD SWAP4 ADD SLOAD SWAP3 DUP4 DUP2 MUL SWAP4 DUP2 DUP6 DIV EQ SWAP1 ISZERO OR ISZERO PUSH2 0x2DF JUMPI PUSH1 0x20 DUP4 PUSH1 0x64 DUP7 MLOAD SWAP2 DIV DUP2 MSTORE RETURN JUMPDEST PUSH4 0x4E487B71 PUSH1 0xE0 SHL DUP3 MSTORE PUSH1 0x11 SWAP1 MSTORE PUSH1 0x24 SWAP1 REVERT JUMPDEST POP POP CALLVALUE PUSH2 0x1B2 JUMPI DUP2 PUSH1 0x3 NOT CALLDATASIZE ADD SLT PUSH2 0x1B2 JUMPI SWAP1 SLOAD SWAP1 MLOAD PUSH1 0x1 PUSH1 0x1 PUSH1 0xA0 SHL SUB SWAP1 SWAP2 AND DUP2 MSTORE PUSH1 0x20 SWAP1 RETURN JUMPDEST POP CALLVALUE PUSH2 0x14C JUMPI PUSH1 0x60 CALLDATASIZE PUSH1 0x3 NOT ADD SLT PUSH2 0x14C JUMPI DUP1 CALLDATALOAD SWAP2 PUSH2 0x344 PUSH1 0x1 DUP1 PUSH1 0xA0 SHL SUB PUSH1 0x1 SLOAD AND CALLER EQ PUSH2 0xBCE JUMP JUMPDEST DUP3 DUP5 MSTORE PUSH1 0x2 PUSH1 0x20 MSTORE DUP1 DUP5 KECCAK256 PUSH2 0x35B DUP2 SLOAD ISZERO ISZERO PUSH2 0xC9F JUMP JUMPDEST PUSH1 0x44 CALLDATALOAD PUSH1 0xB DUP3 ADD SLOAD SUB PUSH2 0x426 JUMPI PUSH1 0xC DUP2 ADD SWAP3 DUP4 SLOAD SWAP3 PUSH1 0xFF DUP5 PUSH1 0x10 SHR AND ISZERO PUSH2 0x3F6 JUMPI PUSH1 0xFF DUP5 AND PUSH2 0x3C8 JUMPI POP POP SWAP1 PUSH2 0x39A PUSH1 0x1 DUP1 SWAP4 ADD SLOAD PUSH1 0x24 CALLDATALOAD LT ISZERO PUSH2 0xC43 JUMP JUMPDEST PUSH1 0xFF NOT AND OR SWAP1 SSTORE PUSH32 0xFBA5E95C7019BCE78B9F892C6CED099CDDB93AB803A0475345CED0659277834F DUP3 DUP1 LOG2 DUP1 RETURN JUMPDEST SWAP1 PUSH1 0x20 PUSH1 0x64 SWAP3 MLOAD SWAP2 PUSH3 0x461BCD PUSH1 0xE5 SHL DUP4 MSTORE DUP3 ADD MSTORE PUSH1 0x8 PUSH1 0x24 DUP3 ADD MSTORE PUSH8 0x15995C9A599A5959 PUSH1 0xC2 SHL PUSH1 0x44 DUP3 ADD MSTORE REVERT JUMPDEST SWAP1 PUSH1 0x20 PUSH1 0x64 SWAP3 MLOAD SWAP2 PUSH3 0x461BCD PUSH1 0xE5 SHL DUP4 MSTORE DUP3 ADD MSTORE PUSH1 0xA PUSH1 0x24 DUP3 ADD MSTORE PUSH10 0x139BDD081CDA59DB9959 PUSH1 0xB2 SHL PUSH1 0x44 DUP3 ADD MSTORE REVERT JUMPDEST DUP2 MLOAD PUSH3 0x461BCD PUSH1 0xE5 SHL DUP2 MSTORE PUSH1 0x20 DUP2 DUP6 ADD MSTORE PUSH1 0xE PUSH1 0x24 DUP3 ADD MSTORE PUSH14 0xA8CAE4DAE640DAD2E6DAC2E8C6D PUSH1 0x93 SHL PUSH1 0x44 DUP3 ADD MSTORE PUSH1 0x64 SWAP1 REVERT JUMPDEST POP SWAP2 SWAP1 CALLVALUE PUSH2 0x1B2 JUMPI PUSH1 0xC0 CALLDATASIZE PUSH1 0x3 NOT ADD SLT PUSH2 0x1B2 JUMPI DUP3 CALLDATALOAD SWAP1 PUSH1 0x64 CALLDATALOAD PUSH2 0x488 PUSH1 0x1 DUP1 PUSH1 0xA0 SHL SUB DUP6 SLOAD AND CALLER EQ PUSH2 0xB95 JUMP JUMPDEST DUP3 DUP5 MSTORE PUSH1 0x2 PUSH1 0x20 MSTORE DUP2 DUP5 KECCAK256 SWAP2 DUP3 SLOAD SWAP1 DUP2 ISZERO PUSH2 0x51B JUMPI POP PUSH2 0x4D2 SWAP1 PUSH1 0x24 CALLDATALOAD PUSH1 0xB DUP6 ADD SSTORE PUSH1 0x44 CALLDATALOAD PUSH1 0x3 DUP6 ADD SSTORE DUP3 DUP8 DUP6 ADD SSTORE PUSH1 0x84 CALLDATALOAD PUSH1 0x9 DUP6 ADD SSTORE PUSH1 0xA4 CALLDATALOAD PUSH1 0xA DUP6 ADD SSTORE PUSH1 0x1 DUP5 ADD SLOAD SWAP1 PUSH2 0xD0D JUMP JUMPDEST DUP2 ISZERO PUSH2 0x508 JUMPI SWAP1 PUSH1 0x7 SWAP2 DIV SWAP2 ADD SSTORE DUP1 PUSH32 0x3E8E23C97D0D7BDF58A8C0B86DD5F225D5BF51DE564F91E7B100BFB6C3359940 DUP4 DUP1 LOG3 DUP1 RETURN JUMPDEST PUSH4 0x4E487B71 PUSH1 0xE0 SHL DUP6 MSTORE PUSH1 0x12 DUP7 MSTORE PUSH1 0x24 DUP6 REVERT JUMPDEST MLOAD PUSH3 0x461BCD PUSH1 0xE5 SHL DUP2 MSTORE PUSH1 0x20 DUP2 DUP9 ADD MSTORE PUSH1 0x11 PUSH1 0x24 DUP3 ADD MSTORE PUSH17 0x14185C9D080C481B9BDD0818D85B1B1959 PUSH1 0x7A SHL PUSH1 0x44 DUP3 ADD MSTORE PUSH1 0x64 SWAP1 REVERT JUMPDEST POP SWAP2 SWAP1 CALLVALUE PUSH2 0x1B2 JUMPI PUSH2 0x562 CALLDATASIZE PUSH2 0xB7A JUMP JUMPDEST PUSH2 0x579 PUSH1 0x1 DUP1 PUSH1 0xA0 SWAP6 SWAP5 SWAP6 SHL SUB DUP6 SLOAD AND CALLER EQ PUSH2 0xB95 JUMP JUMPDEST DUP3 DUP5 MSTORE PUSH1 0x2 PUSH1 0x20 MSTORE DUP2 DUP5 KECCAK256 SWAP1 DUP2 SLOAD PUSH2 0x592 DUP2 ISZERO ISZERO PUSH2 0xC9F JUMP JUMPDEST PUSH1 0xC DUP4 ADD SWAP1 DUP2 SLOAD SWAP1 PUSH2 0x5A6 PUSH1 0xFF DUP4 AND PUSH2 0xC08 JUMP JUMPDEST PUSH2 0x5B6 PUSH1 0x3 DUP7 ADD SLOAD TIMESTAMP GT ISZERO PUSH2 0xCD7 JUMP JUMPDEST PUSH2 0x5C6 PUSH1 0x7 DUP7 ADD SLOAD DUP6 LT ISZERO PUSH2 0xC43 JUMP JUMPDEST PUSH1 0x8 DUP6 ADD PUSH2 0x5D5 DUP6 DUP3 SLOAD PUSH2 0xC7C JUMP JUMPDEST DUP1 SWAP2 SSTORE PUSH1 0x5 DUP7 ADD SWAP6 DUP7 SLOAD SWAP7 PUSH1 0x1 DUP9 ADD DUP1 SWAP9 GT PUSH2 0x642 JUMPI PUSH32 0xD6985739EC9552D19C3572FC03D8CC0F929E20DE244EAA8D01C1786D61FD177A SWAP10 SWAP11 SWAP12 POP DUP8 SWAP1 SSTORE PUSH1 0x6 TIMESTAMP SWAP2 ADD SSTORE LT ISZERO PUSH2 0x630 JUMPI JUMPDEST POP POP DUP3 MLOAD SWAP2 DUP3 MSTORE PUSH1 0x20 DUP3 ADD MSTORE LOG2 DUP1 RETURN JUMPDEST PUSH2 0xFF00 NOT AND PUSH2 0x100 OR SWAP1 SSTORE CODESIZE DUP1 PUSH2 0x620 JUMP JUMPDEST PUSH4 0x4E487B71 PUSH1 0xE0 SHL DUP12 MSTORE PUSH1 0x11 DUP13 MSTORE PUSH1 0x24 DUP12 REVERT JUMPDEST POP CALLVALUE PUSH2 0x14C JUMPI PUSH1 0x20 CALLDATASIZE PUSH1 0x3 NOT ADD SLT PUSH2 0x14C JUMPI DUP1 CALLDATALOAD SWAP2 PUSH2 0x67E PUSH1 0x1 DUP1 PUSH1 0xA0 SHL SUB DUP6 SLOAD AND CALLER EQ PUSH2 0xB95 JUMP JUMPDEST DUP3 DUP5 MSTORE PUSH1 0x2 PUSH1 0x20 MSTORE DUP1 DUP5 KECCAK256 SWAP2 PUSH1 0xC DUP4 ADD SWAP3 PUSH1 0xFF DUP5 SLOAD PUSH1 0x18 SHR AND PUSH2 0x764 JUMPI PUSH2 0x6A7 DUP2 SLOAD ISZERO ISZERO PUSH2 0xC9F JUMP JUMPDEST PUSH2 0x6B7 PUSH1 0x3 DUP3 ADD SLOAD TIMESTAMP GT ISZERO PUSH2 0xCD7 JUMP JUMPDEST PUSH1 0x9 PUSH1 0x8 DUP3 ADD SLOAD SWAP2 ADD SLOAD DUP1 DUP3 GT PUSH1 0x0 EQ PUSH2 0x75B JUMPI PUSH2 0x6D4 SWAP2 PUSH2 0xD0D JUMP JUMPDEST SWAP1 JUMPDEST DUP2 ISZERO PUSH2 0x72C JUMPI POP DUP5 DUP1 DUP1 DUP1 SWAP4 CALLER DUP3 CALL ISZERO PUSH2 0x723 JUMPI POP DUP1 SLOAD PUSH4 0xFF000000 NOT AND PUSH4 0x1000000 OR SWAP1 SSTORE PUSH32 0xB85E553DB1CC947378F2F2D6071D3E64A20A8D3896FEE3D15A5087372164E97C DUP3 DUP1 LOG2 DUP1 RETURN JUMPDEST MLOAD RETURNDATASIZE DUP5 DUP3 RETURNDATACOPY RETURNDATASIZE SWAP1 REVERT JUMPDEST PUSH1 0x64 SWAP1 PUSH1 0x20 DUP5 MLOAD SWAP2 PUSH3 0x461BCD PUSH1 0xE5 SHL DUP4 MSTORE DUP3 ADD MSTORE PUSH1 0x9 PUSH1 0x24 DUP3 ADD MSTORE PUSH9 0x139BC81C99599D5B99 PUSH1 0xBA SHL PUSH1 0x44 DUP3 ADD MSTORE REVERT JUMPDEST POP POP DUP5 SWAP1 PUSH2 0x6D6 JUMP JUMPDEST POP PUSH1 0x20 PUSH1 0x64 SWAP3 MLOAD SWAP2 PUSH3 0x461BCD PUSH1 0xE5 SHL DUP4 MSTORE DUP3 ADD MSTORE PUSH1 0x9 PUSH1 0x24 DUP3 ADD MSTORE PUSH9 0x10D85B98D95B1B1959 PUSH1 0xBA SHL PUSH1 0x44 DUP3 ADD MSTORE REVERT JUMPDEST POP CALLVALUE PUSH2 0x14C JUMPI PUSH1 0x20 CALLDATASIZE PUSH1 0x3 NOT ADD SLT PUSH2 0x14C JUMPI PUSH1 0xC DUP3 PUSH1 0x20 SWAP5 PUSH1 0xFF SWAP4 CALLDATALOAD DUP2 MSTORE PUSH1 0x2 DUP7 MSTORE KECCAK256 ADD SLOAD AND SWAP1 MLOAD SWAP1 ISZERO ISZERO DUP2 MSTORE RETURN JUMPDEST POP CALLVALUE PUSH2 0x14C JUMPI PUSH1 0x20 CALLDATASIZE PUSH1 0x3 NOT ADD SLT PUSH2 0x14C JUMPI DUP2 PUSH1 0x20 SWAP4 PUSH1 0x3 SWAP3 CALLDATALOAD DUP2 MSTORE PUSH1 0x2 DUP6 MSTORE KECCAK256 ADD SLOAD TIMESTAMP GT SWAP1 MLOAD SWAP1 DUP2 MSTORE RETURN JUMPDEST POP SWAP2 SWAP1 CALLVALUE PUSH2 0x1B2 JUMPI PUSH1 0x20 SWAP3 DUP4 PUSH1 0x3 NOT CALLDATASIZE ADD SLT PUSH2 0x14C JUMPI DUP2 MLOAD SWAP4 PUSH2 0x160 SWAP4 DUP5 DUP7 ADD SWAP6 PUSH8 0xFFFFFFFFFFFFFFFF SWAP7 DUP2 DUP2 LT DUP9 DUP3 GT OR PUSH2 0x9A0 JUMPI DUP6 MSTORE DUP6 SWAP1 CALLDATASIZE SWAP1 CALLDATACOPY DUP4 MLOAD PUSH1 0x80 DUP2 ADD DUP2 DUP2 LT DUP9 DUP3 GT OR PUSH2 0x9A0 JUMPI DUP6 MSTORE PUSH1 0x80 SWAP1 CALLDATASIZE SWAP1 CALLDATACOPY DUP3 CALLDATALOAD DUP2 MSTORE PUSH1 0x2 DUP3 MSTORE DUP4 DUP2 KECCAK256 SWAP6 DUP5 MLOAD SWAP6 DUP1 DUP8 ADD DUP8 DUP2 LT DUP4 DUP3 GT OR PUSH2 0x98D JUMPI DUP7 MSTORE DUP8 SLOAD DUP8 MSTORE PUSH1 0x1 SWAP8 PUSH1 0x1 DUP2 ADD SLOAD DUP6 DUP10 ADD MSTORE PUSH1 0x2 DUP2 ADD SLOAD DUP8 DUP10 ADD MSTORE PUSH1 0x3 DUP2 ADD SLOAD PUSH1 0x60 DUP10 ADD MSTORE DUP6 DUP2 ADD SLOAD PUSH1 0x80 DUP10 ADD MSTORE PUSH1 0x5 DUP2 ADD SLOAD PUSH1 0xA0 DUP10 ADD MSTORE PUSH1 0x6 DUP2 ADD SLOAD PUSH1 0xC0 DUP10 ADD MSTORE PUSH1 0x7 DUP2 ADD SLOAD PUSH1 0xE0 DUP10 ADD MSTORE PUSH1 0x8 DUP2 ADD SLOAD PUSH2 0x100 DUP10 ADD MSTORE PUSH1 0x9 DUP2 ADD SLOAD PUSH2 0x120 DUP10 ADD MSTORE PUSH1 0xA DUP2 ADD SLOAD PUSH2 0x140 DUP10 ADD MSTORE DUP7 MLOAD SWAP3 PUSH1 0x80 DUP5 ADD SWAP1 DUP5 DUP3 LT SWAP1 DUP3 GT OR PUSH2 0x97A JUMPI DUP8 SWAP5 SWAP4 SWAP5 MSTORE PUSH1 0xFF PUSH1 0xC DUP3 ADD SLOAD DUP2 DUP2 AND ISZERO ISZERO DUP7 MSTORE DUP2 DUP2 PUSH1 0x8 SHR AND ISZERO ISZERO DUP8 DUP8 ADD MSTORE DUP2 DUP2 PUSH1 0x10 SHR AND ISZERO ISZERO DUP10 DUP8 ADD MSTORE PUSH1 0x18 SHR AND ISZERO ISZERO PUSH1 0x60 DUP6 ADD MSTORE PUSH1 0xB DUP1 SWAP2 ADD SLOAD SWAP7 MLOAD SWAP8 DUP9 SWAP1 DUP11 DUP8 DUP7 SWAP4 JUMPDEST DUP6 DUP6 LT PUSH2 0x963 JUMPI POP POP POP POP POP POP DUP7 ADD SWAP2 SWAP1 SWAP2 JUMPDEST DUP5 DUP4 LT PUSH2 0x94E JUMPI PUSH2 0x200 DUP8 DUP8 PUSH2 0x1E0 DUP3 ADD MSTORE RETURN JUMPDEST DUP2 MLOAD ISZERO ISZERO DUP2 MSTORE SWAP2 DUP8 ADD SWAP2 SWAP1 DUP4 ADD SWAP1 DUP4 ADD PUSH2 0x93A JUMP JUMPDEST DUP4 MLOAD DUP2 MSTORE SWAP2 SWAP1 SWAP4 ADD SWAP3 SWAP2 DUP3 ADD SWAP2 DUP13 SWAP2 DUP10 SWAP2 ADD PUSH2 0x927 JUMP JUMPDEST PUSH4 0x4E487B71 PUSH1 0xE0 SHL DUP6 MSTORE PUSH1 0x41 DUP8 MSTORE PUSH1 0x24 DUP6 REVERT JUMPDEST PUSH4 0x4E487B71 PUSH1 0xE0 SHL DUP5 MSTORE PUSH1 0x41 DUP7 MSTORE PUSH1 0x24 DUP5 REVERT JUMPDEST PUSH4 0x4E487B71 PUSH1 0xE0 SHL DUP4 MSTORE PUSH1 0x41 DUP6 MSTORE PUSH1 0x24 DUP4 REVERT JUMPDEST POP SWAP1 CALLVALUE PUSH2 0x14C JUMPI PUSH2 0x9C3 CALLDATASIZE PUSH2 0xB7A JUMP JUMPDEST SWAP2 SWAP1 SWAP3 PUSH2 0x9DB PUSH1 0x1 DUP1 PUSH1 0xA0 SHL SUB PUSH1 0x1 SLOAD AND CALLER EQ PUSH2 0xBCE JUMP JUMPDEST DUP4 DUP6 MSTORE PUSH1 0x2 PUSH1 0x20 MSTORE DUP2 DUP6 KECCAK256 PUSH1 0xC DUP2 ADD SWAP2 DUP3 SLOAD SWAP2 PUSH2 0x9FA PUSH1 0xFF DUP5 AND PUSH2 0xC08 JUMP JUMPDEST PUSH1 0xFF DUP4 PUSH1 0x8 SHR AND PUSH2 0xAA4 JUMPI PUSH2 0xA15 PUSH1 0x7 DUP3 ADD SLOAD DUP8 LT ISZERO PUSH2 0xC43 JUMP JUMPDEST PUSH1 0x8 DUP2 ADD SWAP2 PUSH2 0xA25 DUP8 DUP5 SLOAD PUSH2 0xC7C JUMP JUMPDEST DUP1 SWAP4 SSTORE PUSH1 0x5 DUP3 ADD DUP1 SLOAD SWAP2 PUSH1 0x1 DUP4 ADD DUP1 SWAP4 GT PUSH2 0xA91 JUMPI POP SWAP2 PUSH32 0x35AA84E7964CB24E58D32F42BCFD54D92ADBF93087DD63EA09EB7492F7A205CF SWAP8 SWAP6 SWAP4 SWAP2 PUSH1 0x20 SWAP8 SWAP6 SWAP4 SSTORE TIMESTAMP PUSH1 0x6 DUP3 ADD SSTORE SLOAD GT ISZERO PUSH2 0xA7F JUMPI JUMPDEST POP POP MLOAD SWAP1 DUP2 MSTORE LOG2 DUP1 RETURN JUMPDEST PUSH2 0xFF00 NOT AND PUSH2 0x100 OR SWAP1 SSTORE CODESIZE DUP1 PUSH2 0xA75 JUMP JUMPDEST PUSH4 0x4E487B71 PUSH1 0xE0 SHL DUP12 MSTORE PUSH1 0x11 SWAP1 MSTORE PUSH1 0x24 DUP11 REVERT JUMPDEST DUP5 MLOAD PUSH3 0x461BCD PUSH1 0xE5 SHL DUP2 MSTORE PUSH1 0x20 DUP2 DUP5 ADD MSTORE PUSH1 0x8 PUSH1 0x24 DUP3 ADD MSTORE PUSH8 0x149958DBDC991959 PUSH1 0xC2 SHL PUSH1 0x44 DUP3 ADD MSTORE PUSH1 0x64 SWAP1 REVERT JUMPDEST POP CALLVALUE PUSH2 0x14C JUMPI PUSH1 0x20 CALLDATASIZE PUSH1 0x3 NOT ADD SLT PUSH2 0x14C JUMPI DUP1 CALLDATALOAD SWAP2 PUSH2 0xAFB PUSH1 0x1 DUP1 PUSH1 0xA0 SHL SUB DUP6 SLOAD AND CALLER EQ PUSH2 0xB95 JUMP JUMPDEST DUP3 DUP5 MSTORE PUSH1 0x2 PUSH1 0x20 MSTORE PUSH1 0xC DUP2 DUP6 KECCAK256 ADD SWAP2 DUP3 SLOAD SWAP2 PUSH1 0xFF DUP4 PUSH1 0x10 SHR AND PUSH2 0xB4E JUMPI POP POP PUSH3 0xFF0000 NOT AND PUSH3 0x10000 OR SWAP1 SSTORE PUSH32 0xE128256DA5D46F76AECC0D0CC60C2DBE58656F40C7CBD375A9115D2B65202012 DUP3 DUP1 LOG2 DUP1 RETURN JUMPDEST SWAP1 PUSH1 0x20 PUSH1 0x64 SWAP3 MLOAD SWAP2 PUSH3 0x461BCD PUSH1 0xE5 SHL DUP4 MSTORE DUP3 ADD MSTORE PUSH1 0x6 PUSH1 0x24 DUP3 ADD MSTORE PUSH6 0x14DA59DB9959 PUSH1 0xD2 SHL PUSH1 0x44 DUP3 ADD MSTORE REVERT JUMPDEST PUSH1 0x40 SWAP1 PUSH1 0x3 NOT ADD SLT PUSH2 0xB90 JUMPI PUSH1 0x4 CALLDATALOAD SWAP1 PUSH1 0x24 CALLDATALOAD SWAP1 JUMP JUMPDEST PUSH1 0x0 DUP1 REVERT JUMPDEST ISZERO PUSH2 0xB9C JUMPI JUMP JUMPDEST PUSH1 0x40 MLOAD PUSH3 0x461BCD PUSH1 0xE5 SHL DUP2 MSTORE PUSH1 0x20 PUSH1 0x4 DUP3 ADD MSTORE PUSH1 0xA PUSH1 0x24 DUP3 ADD MSTORE PUSH10 0x27B7363C9037BBB732B9 PUSH1 0xB1 SHL PUSH1 0x44 DUP3 ADD MSTORE PUSH1 0x64 SWAP1 REVERT JUMPDEST ISZERO PUSH2 0xBD5 JUMPI JUMP JUMPDEST PUSH1 0x40 MLOAD PUSH3 0x461BCD PUSH1 0xE5 SHL DUP2 MSTORE PUSH1 0x20 PUSH1 0x4 DUP3 ADD MSTORE PUSH1 0xB PUSH1 0x24 DUP3 ADD MSTORE PUSH11 0x4F6E6C79206F7261636C65 PUSH1 0xA8 SHL PUSH1 0x44 DUP3 ADD MSTORE PUSH1 0x64 SWAP1 REVERT JUMPDEST ISZERO PUSH2 0xC0F JUMPI JUMP JUMPDEST PUSH1 0x40 MLOAD PUSH3 0x461BCD PUSH1 0xE5 SHL DUP2 MSTORE PUSH1 0x20 PUSH1 0x4 DUP3 ADD MSTORE PUSH1 0xC PUSH1 0x24 DUP3 ADD MSTORE PUSH12 0x139BDD081D995C9A599A5959 PUSH1 0xA2 SHL PUSH1 0x44 DUP3 ADD MSTORE PUSH1 0x64 SWAP1 REVERT JUMPDEST ISZERO PUSH2 0xC4A JUMPI JUMP JUMPDEST PUSH1 0x40 MLOAD PUSH3 0x461BCD PUSH1 0xE5 SHL DUP2 MSTORE PUSH1 0x20 PUSH1 0x4 DUP3 ADD MSTORE PUSH1 0xA PUSH1 0x24 DUP3 ADD MSTORE PUSH10 0x131BDDC8185B5BDD5B9D PUSH1 0xB2 SHL PUSH1 0x44 DUP3 ADD MSTORE PUSH1 0x64 SWAP1 REVERT JUMPDEST SWAP2 SWAP1 DUP3 ADD DUP1 SWAP3 GT PUSH2 0xC89 JUMPI JUMP JUMPDEST PUSH4 0x4E487B71 PUSH1 0xE0 SHL PUSH1 0x0 MSTORE PUSH1 0x11 PUSH1 0x4 MSTORE PUSH1 0x24 PUSH1 0x0 REVERT JUMPDEST ISZERO PUSH2 0xCA6 JUMPI JUMP JUMPDEST PUSH1 0x40 MLOAD PUSH3 0x461BCD PUSH1 0xE5 SHL DUP2 MSTORE PUSH1 0x20 PUSH1 0x4 DUP3 ADD MSTORE PUSH1 0x9 PUSH1 0x24 DUP3 ADD MSTORE PUSH9 0x139BDD08195E1A5CDD PUSH1 0xBA SHL PUSH1 0x44 DUP3 ADD MSTORE PUSH1 0x64 SWAP1 REVERT JUMPDEST ISZERO PUSH2 0xCDE JUMPI JUMP JUMPDEST PUSH1 0x40 MLOAD PUSH3 0x461BCD PUSH1 0xE5 SHL DUP2 MSTORE PUSH1 0x20 PUSH1 0x4 DUP3 ADD MSTORE PUSH1 0x7 PUSH1 0x24 DUP3 ADD MSTORE PUSH7 0x115E1C1A5C9959 PUSH1 0xCA SHL PUSH1 0x44 DUP3 ADD MSTORE PUSH1 0x64 SWAP1 REVERT JUMPDEST SWAP2 SWAP1 DUP3 SUB SWAP2 DUP3 GT PUSH2 0xC89 JUMPI JUMP INVALID LOG2 PUSH5 0x6970667358 0x22 SLT KECCAK256 PUSH32 0x6682C1AC0D806EBF7F8FF981F09ED6033C152CF4D3ACC3E9A0400FE0D596D564 PUSH20 0x6F6C634300081800330000000000000000000000 "},"methodIdentifiers":{"addTransactionPart1(uint256,uint256,uint256,uint256)":"ecd87c45","addTransactionPart2(uint256,bytes32,uint256,uint256,uint256,uint256)":"6a1c6641","cancelTransaction(uint256)":"3380c0d8","getPenalty(uint256)":"96e59682","getRemainingInstallments(uint256)":"c78d6ca9","getTransactionDetails(uint256)":"0fa683d3","isContractExpired(uint256)":"11cb262f","isPaymentVerified(uint256)":"23bbd4a3","oracleAddress()":"a89ae4ba","owner()":"8da5cb5b","payInstallment(uint256,uint256)":"46402a79","recordPayment(uint256,uint256)":"0b879bc2","signAgreement(uint256)":"03742de0","transactions(uint256)":"9ace38c2","verifyPayment(uint256,uint256,bytes32)":"89b8ba0e"}}}}}