{
  "_format": "hh-sol-artifact-1",
  "contractName": "LandTransaction",
  "sourceName": "transaction/smart_contract/LandTransaction.sol",
  "abi": [
    {
      "inputs": [
        {
          "internalType": "address",
          "name": "_oracleAddress",
          "type": "address"
        }
      ],
      "stateMutability": "nonpayable",
      "type": "constructor"
    },
    {
      "anonymous": false,
      "inputs": [
        {
          "indexed": true,
          "internalType": "uint256",
          "name": "agreementId",
          "type": "uint256"
        }
      ],
      "name": "AgreementSigned",
      "type": "event"
    },
    {
      "anonymous": false,
      "inputs": [
        {
          "indexed": true,
          "internalType": "uint256",
          "name": "agreementId",
          "type": "uint256"
        },
        {
          "indexed": false,
          "internalType": "uint256",
          "name": "installmentNumber",
          "type": "uint256"
        },
        {
          "indexed": false,
          "internalType": "uint256",
          "name": "amount",
          "type": "uint256"
        }
      ],
      "name": "InstallmentPaid",
      "type": "event"
    },
    {
      "anonymous": false,
      "inputs": [
        {
          "indexed": true,
          "internalType": "uint256",
          "name": "agreementId",
          "type": "uint256"
        }
      ],
      "name": "PaymentCancelled",
      "type": "event"
    },
    {
      "anonymous": false,
      "inputs": [
        {
          "indexed": true,
          "internalType": "uint256",
          "name": "agreementId",
          "type": "uint256"
        },
        {
          "indexed": false,
          "internalType": "uint256",
          "name": "amount",
          "type": "uint256"
        }
      ],
      "name": "PaymentRecorded",
      "type": "event"
    },
    {
      "anonymous": false,
      "inputs": [
        {
          "indexed": true,
          "internalType": "uint256",
          "name": "agreementId",
          "type": "uint256"
        }
      ],
      "name": "PaymentVerified",
      "type": "event"
    },
    {
      "anonymous": false,
      "inputs": [
        {
          "indexed": true,
          "internalType": "uint256",
          "name": "agreementId",
          "type": "uint256"
        },
        {
          "indexed": true,
          "internalType": "uint256",
          "name": "parcelId",
          "type": "uint256"
        }
      ],
      "name": "TransactionAdded",
      "type": "event"
    },
    {
      "inputs": [
        {
          "internalType": "uint256",
          "name": "_agreementId",
          "type": "uint256"
        },
        {
          "internalType": "uint256",
          "name": "_totalAmount",
          "type": "uint256"
        },
        {
          "internalType": "uint256",
          "name": "_downPayment",
          "type": "uint256"
        },
        {
          "internalType": "uint256",
          "name": "_penaltyRate",
          "type": "uint256"
        }
      ],
      "name": "addTransactionPart1",
      "outputs": [],
      "stateMutability": "nonpayable",
      "type": "function"
    },
    {
      "inputs": [
        {
          "internalType": "uint256",
          "name": "_agreementId",
          "type": "uint256"
        },
        {
          "internalType": "bytes32",
          "name": "_termsHash",
          "type": "bytes32"
        },
        {
          "internalType": "uint256",
          "name": "_expirationDate",
          "type": "uint256"
        },
        {
          "internalType": "uint256",
          "name": "_totalInstallments",
          "type": "uint256"
        },
        {
          "internalType": "uint256",
          "name": "_cancellationFee",
          "type": "uint256"
        },
        {
          "internalType": "uint256",
          "name": "_refundFee",
          "type": "uint256"
        }
      ],
      "name": "addTransactionPart2",
      "outputs": [],
      "stateMutability": "nonpayable",
      "type": "function"
    },
    {
      "inputs": [
        {
          "internalType": "uint256",
          "name": "_agreementId",
          "type": "uint256"
        }
      ],
      "name": "cancelTransaction",
      "outputs": [],
      "stateMutability": "nonpayable",
      "type": "function"
    },
    {
      "inputs": [
        {
          "internalType": "uint256",
          "name": "_agreementId",
          "type": "uint256"
        }
      ],
      "name": "getPenalty",
      "outputs": [
        {
          "internalType": "uint256",
          "name": "",
          "type": "uint256"
        }
      ],
      "stateMutability": "view",
      "type": "function"
    },
    {
      "inputs": [
        {
          "internalType": "uint256",
          "name": "_agreementId",
          "type": "uint256"
        }
      ],
      "name": "getRemainingInstallments",
      "outputs": [
        {
          "internalType": "uint256",
          "name": "",
          "type": "uint256"
        }
      ],
      "stateMutability": "view",
      "type": "function"
    },
    {
      "inputs": [
        {
          "internalType": "uint256",
          "name": "_agreementId",
          "type": "uint256"
        }
      ],
      "name": "getTransactionDetails",
      "outputs": [
        {
          "internalType": "uint256[11]",
          "name": "numericDetails",
          "type": "uint256[11]"
        },
        {
          "internalType": "bool[4]",
          "name": "booleanDetails",
          "type": "bool[4]"
        },
        {
          "internalType": "bytes32",
          "name": "termsHash",
          "type": "bytes32"
        }
      ],
      "stateMutability": "view",
      "type": "function"
    },
    {
      "inputs": [
        {
          "internalType": "uint256",
          "name": "_agreementId",
          "type": "uint256"
        }
      ],
      "name": "isContractExpired",
      "outputs": [
        {
          "internalType": "bool",
          "name": "",
          "type": "bool"
        }
      ],
      "stateMutability": "view",
      "type": "function"
    },
    {
      "inputs": [
        {
          "internalType": "uint256",
          "name": "_agreementId",
          "type": "uint256"
        }
      ],
      "name": "isPaymentVerified",
      "outputs": [
        {
          "internalType": "bool",
          "name": "",
          "type": "bool"
        }
      ],
      "stateMutability": "view",
      "type": "function"
    },
    {
      "inputs": [],
      "name": "oracleAddress",
      "outputs": [
        {
          "internalType": "address",
          "name": "",
          "type": "address"
        }
      ],
      "stateMutability": "view",
      "type": "function"
    },
    {
      "inputs": [],
      "name": "owner",
      "outputs": [
        {
          "internalType": "address",
          "name": "",
          "type": "address"
        }
      ],
      "stateMutability": "view",
      "type": "function"
    },
    {
      "inputs": [
        {
          "internalType": "uint256",
          "name": "_agreementId",
          "type": "uint256"
        },
        {
          "internalType": "uint256",
          "name": "_amount",
          "type": "uint256"
        }
      ],
      "name": "payInstallment",
      "outputs": [],
      "stateMutability": "nonpayable",
      "type": "function"
    },
    {
      "inputs": [
        {
          "internalType": "uint256",
          "name": "_agreementId",
          "type": "uint256"
        },
        {
          "internalType": "uint256",
          "name": "_amount",
          "type": "uint256"
        }
      ],
      "name": "recordPayment",
      "outputs": [],
      "stateMutability": "nonpayable",
      "type": "function"
    },
    {
      "inputs": [
        {
          "internalType": "uint256",
          "name": "_agreementId",
          "type": "uint256"
        }
      ],
      "name": "signAgreement",
      "outputs": [],
      "stateMutability": "nonpayable",
      "type": "function"
    },
    {
      "inputs": [
        {
          "internalType": "uint256",
          "name": "",
          "type": "uint256"
        }
      ],
      "name": "transactions",
      "outputs": [
        {
          "internalType": "uint256",
          "name": "totalAmount",
          "type": "uint256"
        },
        {
          "internalType": "uint256",
          "name": "downPayment",
          "type": "uint256"
        },
        {
          "internalType": "uint256",
          "name": "penaltyRate",
          "type": "uint256"
        },
        {
          "internalType": "uint256",
          "name": "expirationDate",
          "type": "uint256"
        },
        {
          "internalType": "uint256",
          "name": "totalInstallments",
          "type": "uint256"
        },
        {
          "internalType": "uint256",
          "name": "installmentsPaid",
          "type": "uint256"
        },
        {
          "internalType": "uint256",
          "name": "lastInstallmentDate",
          "type": "uint256"
        },
        {
          "internalType": "uint256",
          "name": "installmentAmount",
          "type": "uint256"
        },
        {
          "internalType": "uint256",
          "name": "currentAmountPaid",
          "type": "uint256"
        },
        {
          "internalType": "uint256",
          "name": "cancellationFee",
          "type": "uint256"
        },
        {
          "internalType": "uint256",
          "name": "refundFee",
          "type": "uint256"
        },
        {
          "internalType": "bytes32",
          "name": "termsHash",
          "type": "bytes32"
        },
        {
          "internalType": "bool",
          "name": "isVerified",
          "type": "bool"
        },
        {
          "internalType": "bool",
          "name": "isPaymentRecorded",
          "type": "bool"
        },
        {
          "internalType": "bool",
          "name": "isAgreementSigned",
          "type": "bool"
        },
        {
          "internalType": "bool",
          "name": "isCanceled",
          "type": "bool"
        }
      ],
      "stateMutability": "view",
      "type": "function"
    },
    {
      "inputs": [
        {
          "internalType": "uint256",
          "name": "_agreementId",
          "type": "uint256"
        },
        {
          "internalType": "uint256",
          "name": "_amount",
          "type": "uint256"
        },
        {
          "internalType": "bytes32",
          "name": "_termsHash",
          "type": "bytes32"
        }
      ],
      "name": "verifyPayment",
      "outputs": [],
      "stateMutability": "nonpayable",
      "type": "function"
    }
  ],
  "bytecode": "0x60803461007a57601f610de638819003918201601f19168301916001600160401b0383118484101761007f5780849260209460405283398101031261007a57516001600160a01b0381169081900361007a5760018060a01b0319338160005416176000556001541617600155604051610d5090816100968239f35b600080fd5b634e487b7160e01b600052604160045260246000fdfe6040608081526004908136101561001557600080fd5b600091823560e01c806303742de014610ad25780630b879bc2146109b35780630fa683d3146107ee57806311cb262f146107c257806323bbd4a3146107935780633380c0d81461065557806346402a79146105515780636a1c66411461045a57806389b8ba0e1461031a5780638da5cb5b146102f257806396e596821461029a5780639ace38c2146101b6578063a89ae4ba14610189578063c78d6ca9146101505763ecd87c45146100c657600080fd5b3461014c57608036600319011261014c578035906100ee60018060a01b038554163314610b95565b818452600260205282842054610120575082526002602052812060243581556044356001820155600260643591015580f35b606490602084519162461bcd60e51b8352820152600660248201526545786973747360d01b6044820152fd5b8280fd5b503461014c57602036600319011261014c57806005836020956101829435815260028752209182015491015490610d0d565b9051908152f35b5050346101b257816003193601126101b25760015490516001600160a01b039091168152602090f35b5080fd5b508234610297576020366003190112610297578290823581526002602052208054926001820154926002830154906003840154908401546005850154600686015490600787015492600888015494600989015496600a8a015498600b8b01549a600c01549b8151809e8152602001528c015260608b015260808a015260a089015260c088015260e087015261010086015261012085015261014084015261016083015260ff811615156101808301528060081c60ff1615156101a08301528060101c60ff1615156101c083015260181c60ff1615156101e082015261020090f35b80fd5b508234610297576020366003190112610297578135815260026020528281209160028354930154928381029381850414901517156102df576020836064865191048152f35b634e487b7160e01b825260119052602490fd5b5050346101b257816003193601126101b257905490516001600160a01b039091168152602090f35b503461014c57606036600319011261014c5780359161034460018060a01b03600154163314610bce565b828452600260205280842061035b81541515610c9f565b604435600b8201540361042657600c81019283549260ff8460101c16156103f65760ff84166103c85750509061039a6001809301546024351015610c43565b60ff19161790557ffba5e95c7019bce78b9f892c6ced099cddb93ab803a0475345ced0659277834f8280a280f35b906020606492519162461bcd60e51b8352820152600860248201526715995c9a599a595960c21b6044820152fd5b906020606492519162461bcd60e51b8352820152600a602482015269139bdd081cda59db995960b21b6044820152fd5b815162461bcd60e51b8152602081850152600e60248201526d0a8cae4dae640dad2e6dac2e8c6d60931b6044820152606490fd5b509190346101b25760c03660031901126101b25782359060643561048860018060a01b038554163314610b95565b828452600260205281842091825490811561051b57506104d290602435600b85015560443560038501558287850155608435600985015560a435600a850155600184015490610d0d565b8115610508579060079104910155807f3e8e23c97d0d7bdf58a8c0b86dd5f225d5bf51de564f91e7b100bfb6c33599408380a380f35b634e487b7160e01b855260128652602485fd5b5162461bcd60e51b8152602081880152601160248201527014185c9d080c481b9bdd0818d85b1b1959607a1b6044820152606490fd5b509190346101b25761056236610b7a565b61057960018060a09594951b038554163314610b95565b8284526002602052818420908154610592811515610c9f565b600c8301908154906105a660ff8316610c08565b6105b66003860154421115610cd7565b6105c66007860154851015610c43565b600885016105d5858254610c7c565b809155600586019586549660018801809811610642577fd6985739ec9552d19c3572fc03d8cc0f929e20de244eaa8d01c1786d61fd177a999a9b508790556006429101551015610630575b505082519182526020820152a280f35b61ff0019166101001790553880610620565b634e487b7160e01b8b5260118c5260248bfd5b503461014c57602036600319011261014c5780359161067e60018060a01b038554163314610b95565b828452600260205280842091600c83019260ff845460181c16610764576106a781541515610c9f565b6106b76003820154421115610cd7565b6009600882015491015480821160001461075b576106d491610d0d565b905b811561072c575084808080933382f1156107235750805463ff000000191663010000001790557fb85e553db1cc947378f2f2d6071d3e64a20a8d3896fee3d15a5087372164e97c8280a280f35b513d84823e3d90fd5b606490602084519162461bcd60e51b83528201526009602482015268139bc81c99599d5b9960ba1b6044820152fd5b505084906106d6565b506020606492519162461bcd60e51b8352820152600960248201526810d85b98d95b1b195960ba1b6044820152fd5b503461014c57602036600319011261014c57600c8260209460ff93358152600286522001541690519015158152f35b503461014c57602036600319011261014c57816020936003923581526002855220015442119051908152f35b509190346101b2576020928360031936011261014c57815193610160938486019567ffffffffffffffff96818110888211176109a05785528590369037835160808101818110888211176109a05785526080903690378235815260028252838120958451958087018781108382111761098d5786528754875260019760018101548589015260028101548789015260038101546060890152858101546080890152600581015460a0890152600681015460c0890152600781015460e089015260088101546101008901526009810154610120890152600a81015461014089015286519260808401908482109082111761097a57879493945260ff600c82015481811615158652818160081c16151587870152818160101c1615158987015260181c1615156060850152600b8091015496519788908a8786935b8585106109635750505050505086019190915b84831061094e5761020087876101e0820152f35b8151151581529187019190830190830161093a565b835181529190930192918201918c91899101610927565b634e487b7160e01b855260418752602485fd5b634e487b7160e01b845260418652602484fd5b634e487b7160e01b835260418552602483fd5b50903461014c576109c336610b7a565b9190926109db60018060a01b03600154163314610bce565b8385526002602052818520600c8101918254916109fa60ff8416610c08565b60ff8360081c16610aa457610a156007820154871015610c43565b6008810191610a25878454610c7c565b8093556005820180549160018301809311610a915750917f35aa84e7964cb24e58d32f42bcfd54d92adbf93087dd63ea09eb7492f7a205cf97959391602097959355426006820155541115610a7f575b505051908152a280f35b61ff0019166101001790553880610a75565b634e487b7160e01b8b526011905260248afd5b845162461bcd60e51b81526020818401526008602482015267149958dbdc99195960c21b6044820152606490fd5b503461014c57602036600319011261014c57803591610afb60018060a01b038554163314610b95565b8284526002602052600c818520019182549160ff8360101c16610b4e57505062ff00001916620100001790557fe128256da5d46f76aecc0d0cc60c2dbe58656f40c7cbd375a9115d2b652020128280a280f35b906020606492519162461bcd60e51b8352820152600660248201526514da59db995960d21b6044820152fd5b6040906003190112610b90576004359060243590565b600080fd5b15610b9c57565b60405162461bcd60e51b815260206004820152600a60248201526927b7363c9037bbb732b960b11b6044820152606490fd5b15610bd557565b60405162461bcd60e51b815260206004820152600b60248201526a4f6e6c79206f7261636c6560a81b6044820152606490fd5b15610c0f57565b60405162461bcd60e51b815260206004820152600c60248201526b139bdd081d995c9a599a595960a21b6044820152606490fd5b15610c4a57565b60405162461bcd60e51b815260206004820152600a602482015269131bddc8185b5bdd5b9d60b21b6044820152606490fd5b91908201809211610c8957565b634e487b7160e01b600052601160045260246000fd5b15610ca657565b60405162461bcd60e51b8152602060048201526009602482015268139bdd08195e1a5cdd60ba1b6044820152606490fd5b15610cde57565b60405162461bcd60e51b8152602060048201526007602482015266115e1c1a5c995960ca1b6044820152606490fd5b91908203918211610c895756fea264697066735822122092c0ff597222620e530e98717214475c971d3f5b1700200be5f4b63ed5c1585964736f6c63430008180033",
  "linkReferences": {},
  "deployedLinkReferences": {}
}