{
  "_format": "hh-sol-artifact-1",
  "contractName": "LandTransaction",
  "sourceName": "transaction/smart_contract/LandTransaction.sol",
  "abi": [
    {
      "inputs": [
        {
          "internalType": "address",
          "name": "_oracleAddress",
          "type": "address"
        }
      ],
      "stateMutability": "nonpayable",
      "type": "constructor"
    },
    {
      "anonymous": false,
      "inputs": [
        {
          "indexed": true,
          "internalType": "uint256",
          "name": "transactionId",
          "type": "uint256"
        }
      ],
      "name": "PaymentVerified",
      "type": "event"
    },
    {
      "anonymous": false,
      "inputs": [
        {
          "indexed": true,
          "internalType": "uint256",
          "name": "transactionId",
          "type": "uint256"
        },
        {
          "indexed": true,
          "internalType": "uint256",
          "name": "parcelId",
          "type": "uint256"
        },
        {
          "indexed": false,
          "internalType": "uint256",
          "name": "amount",
          "type": "uint256"
        },
        {
          "indexed": false,
          "internalType": "bytes32",
          "name": "termsHash",
          "type": "bytes32"
        }
      ],
      "name": "TransactionAdded",
      "type": "event"
    },
    {
      "inputs": [
        {
          "internalType": "uint256",
          "name": "_transactionId",
          "type": "uint256"
        },
        {
          "internalType": "uint256",
          "name": "_parcelId",
          "type": "uint256"
        },
        {
          "internalType": "uint256",
          "name": "_amount",
          "type": "uint256"
        },
        {
          "internalType": "bytes32",
          "name": "_termsHash",
          "type": "bytes32"
        }
      ],
      "name": "addTransaction",
      "outputs": [],
      "stateMutability": "nonpayable",
      "type": "function"
    },
    {
      "inputs": [
        {
          "internalType": "uint256",
          "name": "_transactionId",
          "type": "uint256"
        }
      ],
      "name": "getTransactionTermsHash",
      "outputs": [
        {
          "internalType": "bytes32",
          "name": "",
          "type": "bytes32"
        }
      ],
      "stateMutability": "view",
      "type": "function"
    },
    {
      "inputs": [
        {
          "internalType": "uint256",
          "name": "_transactionId",
          "type": "uint256"
        }
      ],
      "name": "isPaymentVerified",
      "outputs": [
        {
          "internalType": "bool",
          "name": "",
          "type": "bool"
        }
      ],
      "stateMutability": "view",
      "type": "function"
    },
    {
      "inputs": [],
      "name": "oracleAddress",
      "outputs": [
        {
          "internalType": "address",
          "name": "",
          "type": "address"
        }
      ],
      "stateMutability": "view",
      "type": "function"
    },
    {
      "inputs": [],
      "name": "owner",
      "outputs": [
        {
          "internalType": "address",
          "name": "",
          "type": "address"
        }
      ],
      "stateMutability": "view",
      "type": "function"
    },
    {
      "inputs": [
        {
          "internalType": "uint256",
          "name": "",
          "type": "uint256"
        }
      ],
      "name": "transactions",
      "outputs": [
        {
          "internalType": "uint256",
          "name": "amount",
          "type": "uint256"
        },
        {
          "internalType": "bool",
          "name": "isVerified",
          "type": "bool"
        },
        {
          "internalType": "bytes32",
          "name": "termsHash",
          "type": "bytes32"
        }
      ],
      "stateMutability": "view",
      "type": "function"
    },
    {
      "inputs": [
        {
          "internalType": "uint256",
          "name": "_transactionId",
          "type": "uint256"
        },
        {
          "internalType": "uint256",
          "name": "_amount",
          "type": "uint256"
        },
        {
          "internalType": "bytes32",
          "name": "_termsHash",
          "type": "bytes32"
        }
      ],
      "name": "verifyPayment",
      "outputs": [],
      "stateMutability": "nonpayable",
      "type": "function"
    }
  ],
  "bytecode": "0x608060405234801561001057600080fd5b50604051610ce1380380610ce18339818101604052810190610032919061011c565b336000806101000a81548173ffffffffffffffffffffffffffffffffffffffff021916908373ffffffffffffffffffffffffffffffffffffffff16021790555080600160006101000a81548173ffffffffffffffffffffffffffffffffffffffff021916908373ffffffffffffffffffffffffffffffffffffffff16021790555050610149565b600080fd5b600073ffffffffffffffffffffffffffffffffffffffff82169050919050565b60006100e9826100be565b9050919050565b6100f9816100de565b811461010457600080fd5b50565b600081519050610116816100f0565b92915050565b600060208284031215610132576101316100b9565b5b600061014084828501610107565b91505092915050565b610b89806101586000396000f3fe608060405234801561001057600080fd5b506004361061007d5760003560e01c80638da5cb5b1161005b5780638da5cb5b146100fe5780639ace38c21461011c578063a89ae4ba1461014e578063ff4ef0401461016c5761007d565b806323bbd4a314610082578063614b0427146100b257806389b8ba0e146100e2575b600080fd5b61009c60048036038101906100979190610626565b610188565b6040516100a9919061066e565b60405180910390f35b6100cc60048036038101906100c79190610626565b6101b5565b6040516100d991906106a2565b60405180910390f35b6100fc60048036038101906100f791906106e9565b6101d5565b005b6101066103da565b604051610113919061077d565b60405180910390f35b61013660048036038101906101319190610626565b6103fe565b604051610145939291906107a7565b60405180910390f35b610156610435565b604051610163919061077d565b60405180910390f35b610186600480360381019061018191906107de565b61045b565b005b60006002600083815260200190815260200160002060010160009054906101000a900460ff169050919050565b600060026000838152602001908152602001600020600201549050919050565b600160009054906101000a900473ffffffffffffffffffffffffffffffffffffffff1673ffffffffffffffffffffffffffffffffffffffff163373ffffffffffffffffffffffffffffffffffffffff1614610265576040517f08c379a000000000000000000000000000000000000000000000000000000000815260040161025c906108c8565b60405180910390fd5b816002600085815260200190815260200160002060000154146102bd576040517f08c379a00000000000000000000000000000000000000000000000000000000081526004016102b490610934565b60405180910390fd5b80600260008581526020019081526020016000206002015414610315576040517f08c379a000000000000000000000000000000000000000000000000000000000815260040161030c906109a0565b60405180910390fd5b6002600084815260200190815260200160002060010160009054906101000a900460ff1615610379576040517f08c379a000000000000000000000000000000000000000000000000000000000815260040161037090610a0c565b60405180910390fd5b60016002600085815260200190815260200160002060010160006101000a81548160ff021916908315150217905550827ffba5e95c7019bce78b9f892c6ced099cddb93ab803a0475345ced0659277834f60405160405180910390a2505050565b60008054906101000a900473ffffffffffffffffffffffffffffffffffffffff1681565b60026020528060005260406000206000915090508060000154908060010160009054906101000a900460ff16908060020154905083565b600160009054906101000a900473ffffffffffffffffffffffffffffffffffffffff1681565b60008054906101000a900473ffffffffffffffffffffffffffffffffffffffff1673ffffffffffffffffffffffffffffffffffffffff163373ffffffffffffffffffffffffffffffffffffffff16146104e9576040517f08c379a00000000000000000000000000000000000000000000000000000000081526004016104e090610a9e565b60405180910390fd5b6000600260008681526020019081526020016000206000015414610542576040517f08c379a000000000000000000000000000000000000000000000000000000000815260040161053990610b0a565b60405180910390fd5b604051806060016040528083815260200160001515815260200182815250600260008681526020019081526020016000206000820151816000015560208201518160010160006101000a81548160ff0219169083151502179055506040820151816002015590505082847fd7b88f1d2fbacf6ceb1fdce6e2963f601772a42f262ef614e47864599ab25cb984846040516105dd929190610b2a565b60405180910390a350505050565b600080fd5b6000819050919050565b610603816105f0565b811461060e57600080fd5b50565b600081359050610620816105fa565b92915050565b60006020828403121561063c5761063b6105eb565b5b600061064a84828501610611565b91505092915050565b60008115159050919050565b61066881610653565b82525050565b6000602082019050610683600083018461065f565b92915050565b6000819050919050565b61069c81610689565b82525050565b60006020820190506106b76000830184610693565b92915050565b6106c681610689565b81146106d157600080fd5b50565b6000813590506106e3816106bd565b92915050565b600080600060608486031215610702576107016105eb565b5b600061071086828701610611565b935050602061072186828701610611565b9250506040610732868287016106d4565b9150509250925092565b600073ffffffffffffffffffffffffffffffffffffffff82169050919050565b60006107678261073c565b9050919050565b6107778161075c565b82525050565b6000602082019050610792600083018461076e565b92915050565b6107a1816105f0565b82525050565b60006060820190506107bc6000830186610798565b6107c9602083018561065f565b6107d66040830184610693565b949350505050565b600080600080608085870312156107f8576107f76105eb565b5b600061080687828801610611565b945050602061081787828801610611565b935050604061082887828801610611565b9250506060610839878288016106d4565b91505092959194509250565b600082825260208201905092915050565b7f4f6e6c7920746865206f7261636c652063616e2063616c6c207468697320667560008201527f6e6374696f6e0000000000000000000000000000000000000000000000000000602082015250565b60006108b2602683610845565b91506108bd82610856565b604082019050919050565b600060208201905081810360008301526108e1816108a5565b9050919050565b7f416d6f756e74206d69736d617463680000000000000000000000000000000000600082015250565b600061091e600f83610845565b9150610929826108e8565b602082019050919050565b6000602082019050818103600083015261094d81610911565b9050919050565b7f5465726d73206d69736d61746368000000000000000000000000000000000000600082015250565b600061098a600e83610845565b915061099582610954565b602082019050919050565b600060208201905081810360008301526109b98161097d565b9050919050565b7f5061796d656e7420616c72656164792076657269666965640000000000000000600082015250565b60006109f6601883610845565b9150610a01826109c0565b602082019050919050565b60006020820190508181036000830152610a25816109e9565b9050919050565b7f4f6e6c7920746865206f776e65722063616e2063616c6c20746869732066756e60008201527f6374696f6e000000000000000000000000000000000000000000000000000000602082015250565b6000610a88602583610845565b9150610a9382610a2c565b604082019050919050565b60006020820190508181036000830152610ab781610a7b565b9050919050565b7f5472616e73616374696f6e20616c726561647920657869737473000000000000600082015250565b6000610af4601a83610845565b9150610aff82610abe565b602082019050919050565b60006020820190508181036000830152610b2381610ae7565b9050919050565b6000604082019050610b3f6000830185610798565b610b4c6020830184610693565b939250505056fea2646970667358221220ce467e08a6c12342ca505555d88fed958ed726aab878dd3410f787bfc9c3469c64736f6c63430008180033",
  "linkReferences": {},
  "deployedLinkReferences": {}
}